{
  "_format": "hh-sol-artifact-1",
  "contractName": "whitelist",
  "sourceName": "contracts/whitelist.sol",
  "abi": [
    {
      "inputs": [
        {
          "internalType": "uint8",
          "name": "_maxwhitelistedAddress",
          "type": "uint8"
        }
      ],
      "stateMutability": "nonpayable",
      "type": "constructor"
    },
    {
      "inputs": [],
      "name": "addAddressToWhitelist",
      "outputs": [],
      "stateMutability": "nonpayable",
      "type": "function"
    },
    {
      "inputs": [],
      "name": "maxWhitelistedAddresses",
      "outputs": [
        {
          "internalType": "uint8",
          "name": "",
          "type": "uint8"
        }
      ],
      "stateMutability": "view",
      "type": "function"
    },
    {
      "inputs": [],
      "name": "numAddressesWhitelisted",
      "outputs": [
        {
          "internalType": "uint8",
          "name": "",
          "type": "uint8"
        }
      ],
      "stateMutability": "view",
      "type": "function"
    },
    {
      "inputs": [
        {
          "internalType": "uint8",
          "name": "_number",
          "type": "uint8"
        }
      ],
      "name": "updatemaxwhitelist",
      "outputs": [],
      "stateMutability": "nonpayable",
      "type": "function"
    },
    {
      "inputs": [
        {
          "internalType": "address",
          "name": "",
          "type": "address"
        }
      ],
      "name": "whitelistedAddresses",
      "outputs": [
        {
          "internalType": "bool",
          "name": "",
          "type": "bool"
        }
      ],
      "stateMutability": "view",
      "type": "function"
    }
  ],
  "bytecode": "0x608060405234801561001057600080fd5b5060405161075f38038061075f833981810160405281019061003291906100d1565b80600060146101000a81548160ff021916908360ff160217905550336000806101000a81548173ffffffffffffffffffffffffffffffffffffffff021916908373ffffffffffffffffffffffffffffffffffffffff160217905550506100fe565b600080fd5b600060ff82169050919050565b6100ae81610098565b81146100b957600080fd5b50565b6000815190506100cb816100a5565b92915050565b6000602082840312156100e7576100e6610093565b5b60006100f5848285016100bc565b91505092915050565b6106528061010d6000396000f3fe608060405234801561001057600080fd5b50600436106100575760003560e01c806306c933d81461005c57806331a721881461008c5780634011d7cd146100aa5780638e7314d9146100c8578063d6ba3a30146100d2575b600080fd5b61007660048036038101906100719190610390565b6100ee565b60405161008391906103d8565b60405180910390f35b61009461010e565b6040516100a1919061040f565b60405180910390f35b6100b2610121565b6040516100bf919061040f565b60405180910390f35b6100d0610134565b005b6100ec60048036038101906100e79190610456565b6102b7565b005b60016020528060005260406000206000915054906101000a900460ff1681565b600060149054906101000a900460ff1681565b600260009054906101000a900460ff1681565b600160003373ffffffffffffffffffffffffffffffffffffffff1673ffffffffffffffffffffffffffffffffffffffff16815260200190815260200160002060009054906101000a900460ff16156101c1576040517f08c379a00000000000000000000000000000000000000000000000000000000081526004016101b890610506565b60405180910390fd5b600060149054906101000a900460ff1660ff16600260009054906101000a900460ff1660ff1610610227576040517f08c379a000000000000000000000000000000000000000000000000000000000815260040161021e90610598565b60405180910390fd5b60018060003373ffffffffffffffffffffffffffffffffffffffff1673ffffffffffffffffffffffffffffffffffffffff16815260200190815260200160002060006101000a81548160ff0219169083151502179055506001600260008282829054906101000a900460ff1661029d91906105e7565b92506101000a81548160ff021916908360ff160217905550565b60008054906101000a900473ffffffffffffffffffffffffffffffffffffffff1673ffffffffffffffffffffffffffffffffffffffff163373ffffffffffffffffffffffffffffffffffffffff161461030f57600080fd5b80600060146101000a81548160ff021916908360ff16021790555050565b600080fd5b600073ffffffffffffffffffffffffffffffffffffffff82169050919050565b600061035d82610332565b9050919050565b61036d81610352565b811461037857600080fd5b50565b60008135905061038a81610364565b92915050565b6000602082840312156103a6576103a561032d565b5b60006103b48482850161037b565b91505092915050565b60008115159050919050565b6103d2816103bd565b82525050565b60006020820190506103ed60008301846103c9565b92915050565b600060ff82169050919050565b610409816103f3565b82525050565b60006020820190506104246000830184610400565b92915050565b610433816103f3565b811461043e57600080fd5b50565b6000813590506104508161042a565b92915050565b60006020828403121561046c5761046b61032d565b5b600061047a84828501610441565b91505092915050565b600082825260208201905092915050565b7f53656e6465722068617320616c7265616479206265656e2077686974656c697360008201527f7465640000000000000000000000000000000000000000000000000000000000602082015250565b60006104f0602383610483565b91506104fb82610494565b604082019050919050565b6000602082019050818103600083015261051f816104e3565b9050919050565b7f4d6f7265206164647265737365732063616e742062652061646465642c206c6960008201527f6d69742072656163686564000000000000000000000000000000000000000000602082015250565b6000610582602b83610483565b915061058d82610526565b604082019050919050565b600060208201905081810360008301526105b181610575565b9050919050565b7f4e487b7100000000000000000000000000000000000000000000000000000000600052601160045260246000fd5b60006105f2826103f3565b91506105fd836103f3565b9250828201905060ff811115610616576106156105b8565b5b9291505056fea264697066735822122047a3c70b9094464606abcdc0d724b42aa53c089de80f19cb171d09c2df2b6e7064736f6c63430008110033",
  "linkReferences": {},
  "deployedLinkReferences": {}
}